:040000006CEF00F0B1
:10000800FACF01F0FBCF02F0E9CF03F06EEF00F07A
:10001800D8CF12F0E8CF13F0E0CF14F0FACF15F0F4
:10002800FBCF16F0E9CF17F0EACF18F0E1CF19F0BF
:10003800E2CF1AF0D9CF1BF0DACF1CF0F3CF1DF0C6
:10004800F4CF1EF0F6CF1FF0F7CF20F0F8CF21F055
:10005800F5CF22F09EA619D08A8CC698820E116E12
:10006800DE0EE82EFED7112EFCD7C688C7B403D003
:100078000BEC01F007D0310E0F6E000E106EEEEC97
:1000880000F000D08A9C9E9600D022C0F5FF21C0C7
:10009800F8FF20C0F7FF1FC0F6FF1EC0F4FF1DC009
:1000A800F3FF1CC0DAFF1BC0D9FF1AC0E2FF19C05A
:1000B800E1FF18C0EAFF17C0E9FF16C0FBFF15C033
:1000C800FAFF14C0E0FF13C0E8FF12C0D8FF100009
:1000D800A6EF00F0EACF04F0E1CF05F0E2CF06F09A
:1000E800D9CF07F0DACF08F0F3CF09F0F4CF0AF050
:1000F800F6CF0BF0F7CF0CF0F8CF0DF0F5CF0EF0F0
:100108009EA603D08A8E9E9600D00EC0F5FF0DC025
:10011800F8FF0CC0F7FF0BC0F6FF0AC0F4FF09C0D8
:10012800F3FF08C0DAFF07C0D9FF06C0E2FF05C029
:10013800E1FF04C0EAFF03C0E9FF02C0FBFF01C002
:10014800FAFF110000EE25F00C0EEE6AE806FDE15C
:10015800220EF66E020EF76E000EF86E00EE31F00B
:1001680010EE0AF00900F5CFEEFFE550E150FAE194
:10017800000104EF01F0000E806E000E816E000E8B
:10018800826E000E836E000E846E3F0E926E000E1D
:10019800936EF30E946E0C0E956E000E966E3F0ED7
:1001A800C116000EB86E12000E0E236E270E246EB6
:1001B8000C0E951224502424C86EC69EC688C650BC
:1001C800F00B0609C66EC68AD08EF28EF28C9F9608
:1001D8009D861200C7A803D0000E2F6E00D0C698C7
:1001E8002F50010DF3500F24D96EF4501020DA6E01
:1001F800DF50C96E2F2A00D0C7A0FED7C6881200CC
:10020800BFEC00F0D8EC00F0FFD76CEF00F0C7A00F
:1002180003D0C9CF2FF000D0120031323334353635
:0402280037383940EA
:020000040020DA
:08000000FFFFFFFFFFFFFFFF00
:020000040030CA
:0E000000FF06003E049981FF0FC00FE00F4085
:00000001FF
