:020000040000FA
:06000000C7EF04F012003E
:020006001200E6
:0600080037EF03F01200C7
:01000E0000F1
:0600180037EF03F01200B7
:02001E000200DE
:10002000C0090000600000004E0000000E0000004B
:08003000B9000000010000000E
:08003800D9CFE6FFE1CFD9FFAB
:10004000D950FD0FE96EFF0EDA20EA6E000ED8805F
:10005000EE54000EED540BE20A0EE66ED5EC04F001
:10006000E552FD0EDB06FE0EEBE2DB06E9D7E552BC
:10007000E7CFD9FF1200D9CFE6FFE1CFD9FFD950A2
:10008000FD0FE96EFF0EDA20EA6E000ED880EE5406
:10009000000EED540BE20A0EE66EA7EC04F0E552FA
:1000A000FD0EDB06FE0EEBE2DB06E9D7E552E7CFFD
:1000B000D9FF1200D9CFE6FFE1CFD9FF050EE12627
:1000C000FD0EDBCF10F0FE0EDBCF11F0126AA00E9A
:1000D0000C6E860E0D6E010E0E6E10C007F011C074
:1000E00008F012C009F030EC04F00750DF6EFD0E8E
:1000F000DBCF10F0FE0EDBCF11F0126AA00E0C6EFB
:10010000860E0D6E010E0E6E10C007F011C008F0C5
:1001100012C009F030EC04F003C010F004C011F07C
:1001200005C012F0FD0E03C0DBFFFE0E04C0DBFFB6
:10013000100E106E270E116EFD0EDBCF08F0FE0EB6
:10014000DBCF09F010C00DF011C00EF091EC04F0FF
:10015000010E08C0DBFFFD0EDBCF10F0FE0EDBCF83
:1001600011F0100E0D6E270E0E6E10C008F011C0AB
:1001700009F091EC04F004C010F005C011F0FD0E80
:1001800004C0DBFFFE0E05C0DBFFE80E106E030EA1
:10019000116EFD0EDBCF08F0FE0EDBCF09F010C0B4
:1001A0000DF011C00EF091EC04F0020E08C0DBFF60
:1001B000FD0EDBCF10F0FE0EDBCF11F0E80E0D6E62
:1001C000030E0E6E10C008F011C009F091EC04F09F
:1001D00004C010F005C011F0FD0E04C0DBFFFE0EE0
:1001E00005C0DBFF640E106E116AFD0EDBCF08F058
:1001F000FE0EDBCF09F010C00DF011C00EF091EC37
:1002000004F0030E08C0DBFFFD0EDBCF10F0FE0E86
:10021000DBCF11F0640E0D6E0E6A10C008F011C035
:1002200009F091EC04F004C010F005C011F0FD0ECF
:1002300004C0DBFFFE0E05C0DBFF0A0E106E116A64
:10024000FD0EDBCF08F0FE0EDBCF09F010C00DF085
:1002500011C00EF091EC04F0040E08C0DBFFFD0E9F
:10026000DBCF10F0FE0EDBCF11F00A0E0D6E0E6A22
:1002700010C008F011C009F091EC04F004C010F0B7
:1002800005C011F0FD0E04C0DBFFFE0E05C0DBFF54
:10029000050EE15C02E2E16AE552E16EE552E7CF6C
:0402A000D9FF120070
:0C02A400806A816A826A836A846A3F0E65
:1002B000926E936AF30E946E1C0E956E966AE1EC44
:1002C00003F00F0E7F1400097F6EF30E7F140009F8
:1002D0007F6EFC0E7F1400097F6E7E9E7E9C8F0ECB
:1002E0006F1450096F6E6F906F926F946F960F0E30
:1002F0006E1400096E6E6E966E926E900F0E7A6E90
:100300007B682F0E786EFE0E796E050E766E776A1C
:10031000746E756A726E736A6B686A683F0E6D14EC
:1003200000096D6E7F0E6D6EF28EF28CA588A3882B
:100330007E8E79D8C28000019D2B9D51080802E273
:10034000010E9D6F02D84BD8F6D70001080ED88059
:100350006055000E615502E2606B616B9D0509E01E
:10036000020E9D5D06E0030E9D5D03E0040E9D5DA3
:1003700002E18A8E01D08A9E60C0E9FF61C0EAFF77
:10038000010ED890E936EA36E806FBE1930EE9263D
:10039000000EEA22EF50796E60C0E9FF61C0EAFF0B
:1003A000010ED890E936EA36E806FBE1930EE9261D
:1003B000000EEA22EECF10F0EFCF11F011C010F0D6
:1003C000116A1050786E0001602B000E6123320E0E
:1003D000E66EE66A1CEC00F0E552E5521200000100
:1003E0009D51080A1DE00F0A19E0010A15E0030AF1
:1003F00011E0010A0DE0070A09E0010A05E0030A1D
:1004000001E01200560E0DD0660E0BD0650E09D01D
:10041000690E07D0590E05D0990E03D0950E01D064
:10042000960E6B6E1200030EB86EB96A3F0EC114C1
:100430000009C16EC198C29AC298F30EC214000995
:10044000C26EF80EC0140609C06E870EC0141809DB
:10045000C06EE00E9A1400099A6E3F0E9A14C009FD
:100460009A6E996AC2901200D9CFE6FFE1CFD9FF08
:10047000FD0EDBCFE9FFDB2AFE0EDBCFEAFF01E357
:10048000DB2AEFCF10F0FC0EDB50105C10E07AECB2
:1004900004F0E66EFD0EDBCFE9FFDB2AFE0EDBCFBC
:1004A000EAFF01E3DB2AE552E750EF6EE1D7E552C0
:0604B000E7CFD9FF1200A6
:0A04B600D9CFE6FFE1CFD9FFE652EF
:1004C000959295849596C78EC78CC688C696C69415
:1004D000C682C690C69EC68CC69CC68AC950DF6EB0
:1004E000C950DF6EC950DF6EE552E552E7CFD9FF44
:1004F0001200959295849586948CD08EF28EF28C13
:100500009F869D86C79EC78CC698C696C694C6927F
:10051000C690C69EC68A1200D9CFE6FFE1CFD9FFAA
:100520008A9A0A0EE66EE66A1CEC00F0E552E55285
:10053000FE0EDB50C96EC7A0FED78A8AC950E552AD
:10054000E7CFD9FF1200D9CFE6FFE1CFD9FFE652BE
:10055000DF6A8A9A0A0EE66EE66A1CEC00F0E55243
:10056000E552FD0EDBCFE9FFFE0EDBCFEAFFEF50D9
:10057000C96EC7A0FED7DF6A0A0EDF5C04E2C7A01F
:10058000FED7DF2AF9D78A8AC950E552E552E7CF6C
:10059000D9FF1200D9CFE6FFE1CFD9FF030EE12644
:1005A000DE6ADD6A020EDB6ADE6ADD6ADECF10F02B
:1005B000DDCF11F0100E105C000E11583BE2FD0E65
:1005C000DBCFE9FFFE0EDBCFEAFF020EEFCFDBFF52
:1005D0008A9A010EE66EE66A1CEC00F0E552E552DE
:1005E000C6BC8980020EDB50C96EC7A0FED7FB0EC9
:1005F000DBCFE9FFFC0EDBCFEAFFC9CFEFFF010E37
:10060000E66EE66A1CEC00F0E552E5528A8AFB0EC3
:10061000DB2AFC0E01E3DB2AFD0EDBCFE9FFDB2A40
:10062000FE0EDBCFEAFF01E3DB2ADF2A010EBEE389
:10063000DB2ABCD7010EF36EF46A030EE15C02E222
:10064000E16AE552E16EE552E7CFD9FF1200D9CF5A
:10065000E6FFE1CFD9FFE652DF6AC950DF6EC7A0DF
:0E066000FED7C950E552E552E7CFD9FF120090
:02066E00DACFE1
:10067000E4FFE2CFDAFFE9CFE4FFEACFE4FFF6CF11
:10068000E4FFF7CFE4FFF5CFE4FFF3CFE4FFF4CFCF
:10069000E4FFFACFE4FF00EE00F0100EE80403E3FD
:1006A000EECFE4FFFBD700EE10F0030EE80403E307
:1006B000EECFE4FFFBD7E6529EAA02D08A8E8A9E36
:1006C0009EA608D08A8CAA0EE66E8CEC02F0E5524B
:1006D0008A9C9E96A4B8A4989EBC9E9CE55200EE6F
:1006E00012F0030EE80403E3E5CFEDFFFBD700EEC5
:1006F0000FF0100EE80403E3E5CFEDFFFBD7E5CFE5
:10070000FAFFE5CFF4FFE5CFF3FFE5CFF5FFE5CF47
:10071000F7FFE5CFF6FFE5CFEAFFE5CFE9FFE5CF4D
:04072000DAFF1100EB
:0C0724001E0EF66E000EF76E000EF86E52
:1007300000010900F550B36F0900F550B46F03E1F3
:10074000B36701D03DD00900F550AE6F0900F550F8
:10075000AF6F0900F550B06F09000900F550E96E60
:100760000900F550EA6E090009000900F550B16F63
:100770000900F550B26F09000900F6CFB5F0F7CFC8
:10078000B6F0F8CFB7F0AEC0F6FFAFC0F7FFB0C01D
:10079000F8FF0001B15302E1B25307E00900F55040
:1007A000EE6EB107F8E2B207F9D7B5C0F6FFB6C0F2
:1007B000F7FFB7C0F8FF0001B307000EB45BBFD767
:0207C000120025
:0E07C200D9CFE6FFE1CFD9FFE652DF6AAC9453
:1007D000AA86010EB06E030EAF6EAB8EAB88AC8AEC
:1007E000AE50DF6EAE50DF6EE552E552E7CFD9FF77
:1007F0001200D9CFE6FFE1CFD9FF9EA8FED7FE0EAB
:10080000DB50AD6EE552E7CFD9FF1200ABA202D0AC
:10081000AB98AB889EAAFED7AE501200D9CFE6FFA8
:10082000E1CFD9FFFD0EDBCFF6FFFE0EDBCFF7FFEA
:100830000800F55011E0FD0EDBCFF6FFFE0EDBCF1A
:10084000F7FF0800F550E66ED4DFE552FD0EDB2A17
:10085000FE0EE8E3DB2AE6D7E552E7CFD9FF120028
:10086000006A0EAE3BEF04F00C6C0D1E0E1EE86A23
:100870000D220E22001E09AE45EF04F0076C081E83
:10088000091EE86A08220922001E5DEC04F009BE78
:1008900058EF04F000AE000C076C081E091EE86A51
:1008A00008220922036C041E051E04220522000CE6
:0A08B00000BE4CEF04F00188FF0CBD
:0608BA00056A046A036AEE
:1008C000180EE76ED8900736083609360336043618
:1008D00005360C50035C0D5004580E50055807E3C4
:1008E0000C50035E0D50045A0E50055A072AE72E8D
:0408F000EAD7120031
:0C08F400D9CFE6FFDACFE6FFE1CFD9FF55
:10090000E2CFDAFFE652C950DF6E9E96C96A9EA614
:10091000FED7C950E552E552E5CFDAFFE7CFD9FF60
:020920001200C3
:0E092200056A046A100EE76ED8900836093692
:10093000043605360D50045C0E50055805E30D5085
:0E094000045E0E50055A082AE72EF0D712006A
:02094E00FF0E9A
:10095000E350136E480E01D04C0EE76EE72EFED723
:0E096000E76AE72EFED7132EF7D7000012002D
:02096E00000E79
:10097000F36E00EE00F0030E01D81200EA6002D020
:0E098000EE6AFCD7F350E9601200EE6AFCD775
:02098E0012EE67
:1009900000F022EE00F0F86A019C92EC03F003EC08
:0A09A00000F052EC01F0FBD712004A
:0609AA00FF0EE350E84ED1
:1009B0001200000000D000D000D0E82EFAD71200BC
:1009C0000000000000000000000000000000000027
:1009D000000000303132333435363738393030307A
:1009E0003030302A4142434445464748494A4B004B
:1009F000323334FE2FFF1FFF0FFF0EFF09040000EC
:0E0A00000000000000000000000000000000E8
:020000040030CA
:0100010006F8
:010002000CF1
:010003003EBE
:010005009961
:010006008178
:00000001FF
