:0400000051EF00F0CC
:10000800FACF01F0FBCF02F0E9CF03F053EF00F095
:10001800D8CF0FF0E8CF10F0E0CF11F0FACF12F000
:10002800FBCF13F0E9CF14F0EACF15F0E1CF16F0CB
:10003800E2CF17F0D9CF18F0DACF19F0F3CF1AF0D2
:10004800F4CF1BF0F6CF1CF0F7CF1DF0F8CF1EF061
:10005800F5CF1FF01FC0F5FF1EC0F8FF1DC0F7FF4A
:100068001CC0F6FF1BC0F4FF1AC0F3FF19C0DAFF6B
:1000780018C0D9FF17C0E2FF16C0E1FF15C0EAFF9C
:1000880014C0E9FF13C0FBFF12C0FAFF11C0E0FF64
:1000980010C0E8FF0FC0D8FF1000B3EF00F0EACFA0
:1000A80004F0E1CF05F0E2CF06F0D9CF07F0DACFC0
:1000B80008F0F3CF09F0F4CF0AF0F6CF0BF0F7CF42
:1000C8000CF0F8CF0DF0F5CF0EF0A4A002D08A7E88
:1000D800A4909EAC09D08A9C00D0C1A6FED702ECA1
:1000E80001F08A8C9E9C00D00EC0F5FF0DC0F8FF71
:1000F8000CC0F7FF0BC0F6FF0AC0F4FF09C0F3FFFE
:1001080008C0DAFF07C0D9FF06C0E2FF05C0E1FF5B
:1001180004C0EAFF03C0E9FF02C0FBFF01C0FAFF09
:100128001100C9EC00F0DEEC00F007EC01F024C08F
:10013800C2FF29C0C1FF25C0C0FF26C09AFF000E1C
:10014800996EC2809F9C9D9CFAEC00F0A10E216ED6
:10015800200E206EF0EC00F0FFD751EF00F0296A76
:10016800286A276A140EF66E020EF76E000EF86EF5
:1001780000EE22F010EE05F00900F5CFEEFFE55095
:10018800E150FAE1000195EF00F0000E806E000EDC
:10019800816E000E826E000E836E000E846E3F0E1E
:1001A800926E000E936EF30E946E0C0E956E000E0A
:1001B800966E1200000E206EAC9CAC94AA86010EBE
:1001C800B06E030EAF6EAC98AB8EAB88AC8AAECF78
:1001D80020F0AECF20F01200F28EF28CA590A38012
:1001E80020C087FF21C088FFB7801200B79EB79C48
:1001F800B79AE70EB716B792B7941200C3CF27F095
:10020800C4CF28F01200C2909D9C12000F0020B2AB
:020218000200E2
:020000040020DA
:08000000FFFFFFFFFFFFFFFF00
:020000040030CA
:0E000000FF06003E049981FF0FC00FE00F4085
:00000001FF
